:020000040800F2
:1000000000500020F10C00084109000847090008D1
:100010004D090008530900085909000800000000B4
:100020000000000000000000000000005F09000860
:100030006B09000800000000770900088309000828
:10004000390D0008390D0008390D0008390D000878
:10005000390D0008390D0008390D0008390D000868
:10006000390D0008390D0008390D0008390D000858
:10007000390D0008390D0008390D0008390D000848
:10008000390D0008390D0008390D0008390D000838
:10009000390D0008390D0008390D0008390D000828
:1000A000390D0008390D0008390D0008390D000818
:1000B000390D0008390D0008390D0008390D000808
:1000C000390D0008390D0008390D0008390D0008F8
:1000D000390D0008390D0008390D0008390D0008E8
:1000E000390D0008390D0008390D00080000000026
:1000F0000000000000000000000000000000000000
:0C01000000000000000000005FF808F1A3
:10010C0010B5054C237833B9044B13B10448AFF345
:10011C0000800123237010BDC802002000000000E5
:10012C002034000808B5034B1BB103490348AFF357
:10013C00008008BD00000000CC0200202034000824
:10014C0080B582B000AF0123FB710123BB714FF06E
:10015C00FF3301221049114801F091FF0346BB7196
:10016C00BB79002B0FD10C4B1B789AB24FF0FF339D
:10017C000B490A4801F083FF0346BB71BB79002B86
:10018C0001D10023FB71044800F00CF8FB791846F0
:10019C000837BD4680BD00BFE4020020B803002034
:1001AC00E502002080B582B000AF78607B68013337
:1001BC001B78212B2CDC102B7CDB103B112B79D8E2
:1001CC0001A252F823F000BF230200082B02000802
:1001DC00330200083B0200084902000857020008DD
:1001EC006502000873020008810200088F020008F3
:1001FC00C1020008C1020008C1020008C1020008C7
:10020C00C1020008C10200089D020008AB020008F0
:10021C00992B4BD04EE0786800F0E4F84AE078680F
:10022C0000F0B0F946E0786800F042F942E023486B
:10023C0002F06CF9786800F02BFA3BE0204802F0F1
:10024C0065F9786800F01AFA34E01E4802F05EF99D
:10025C00786800F009FA2DE01B4802F057F978682D
:10026C0000F0F8F926E0194802F050F9786800F02F
:10027C0041FA1FE0164802F049F9786800F030FAAC
:10028C0018E0144802F042F9786800F01FFA11E007
:10029C00114802F03BF9786800F00EFA0AE00F48BA
:1002AC0002F034F9786800F0FDF903E0786800F0AA
:1002BC0017F800BF00BF0837BD4680BD38340008B2
:1002CC005034000864340008783400088C3400087A
:1002DC00A4340008B8340008D4340008E83400080A
:1002EC0080B58CB000AF7860354802F089F80123F6
:1002FC0087F82F307B681B78033B7A6813441B68A4
:10030C003B620023BB62002387F8273012E097F88A
:10031C0027307A6813441B78FB6007F10C03012229
:10032C001946284800F092FEB86297F8273001333E
:10033C0087F8273097F827207B681B78033B9A4275
:10034C00E5DB3A6ABB6A9A4226D11F4802F0DEF816
:10035C00002387F82F301D4B1B68FB611C4B1B685F
:10036C00BB61BB697B6101F0DBF8164800F041FE14
:10037C004FF40051174801F017F8174801F0CAFD67
:10038C00164801F0C7FDFB693B613B6983F30888A4
:10039C0000BF7B69984705E0114802F0B7F80123CC
:1003AC0087F82F30074B1B689A68064B1B6842F086
:1003BC0001029A6097F82F3018463037BD4680BD41
:1003CC0004350008AC0300201435000800000108B7
:1003DC000400010800100140B803002000040020B4
:1003EC002035000880B588B000AF78602A4802F04C
:1003FC008DF80123FB774FF4B273FB607B681B789D
:10040C00033B7A6813441B683B610023BB610023E8
:10041C00FB750FE0FB7D7A6813441B78BB6007F11A
:10042C000803012219461D4800F010FEB861FB7D3F
:10043C000133FB75FA7D7B681B78033B9A42E9DB41
:10044C003A69BB699A4215D1154802F05FF800234E
:10045C00FB7707F10C014FF0FF330422114801F038
:10046C008BFD7B7B1946BB7B1A46FB7B0E4801F050
:10047C00C7FF04E00D4802F049F80123FB77074B56
:10048C001B689A68054B1B6842F001029A60FB7F5F
:10049C0018462037BD4680BD2C350008AC03002023
:1004AC0014350008B80300203C350008203500083E
:1004BC0080B588B000AF78602B4802F027F8012394
:1004CC00FB777B681B78033B7A6813441B683B61A2
:1004DC000023BB610023FB750FE0FB7D7A6813449E
:1004EC001B78FB6007F10C03012219461F4800F032
:1004FC00ADFDB861FB7D0133FB75FA7D7B681B7824
:10050C00033B9A42E9DB3A69BB699A4219D1184814
:10051C0001F0FCFF0023FB77164B1B689BB2C3F367
:10052C000A039BB27B8107F10A014FF0FF330222D1
:10053C00114801F021FD7B891946104801F060FF3C
:10054C0004E00F4801F0E2FF0123FB77074B1B6827
:10055C009A68064B1B6842F001029A60FB7F1846B2
:10056C002037BD4680BD00BF54350008AC030020C9
:10057C0014350008002004E0B8030020683500089A
:10058C002035000880B588B000AF78602B4801F0AA
:10059C00BDFF0123FB777B681B78033B7A68134410
:1005AC001B683B610023BB610023FB750FE0FB7DE7
:1005BC007A6813441B78FB6007F10C03012219467F
:1005CC001F4800F043FDB861FB7D0133FB75FA7DDC
:1005DC007B681B78033B9A42E9DB3A69BB699A4218
:1005EC001AD1184801F092FF0023FB770023BB754A
:1005FC000EE0BB7D322202FB03F3134A99184FF035
:10060C00FF332322114801F0B7FCBB7D0133BB75CE
:10061C00BB7D0B2BEDD904E00D4801F077FF0123D6
:10062C00FB77074B1B689A68054B1B6842F001026D
:10063C009A60FB7F18462037BD4680BD7435000894
:10064C00AC0300201435000800000020B803002083
:10065C002035000880B483B000AF786000BF184626
:10066C000C37BD4680BC704780B483B000AF786057
:10067C0000BF18460C37BD4680BC704780B483B0B1
:10068C0000AF786000BF18460C37BD4680BC704781
:10069C0080B483B000AF786000BF18460C37BD46FD
:1006AC0080BC704780B483B000AF786000BF184640
:1006BC000C37BD4680BC704780B483B000AF786007
:1006CC0000BF18460C37BD4680BC704780B483B061
:1006DC0000AF786000BF18460C37BD4680BC704731
:1006EC0080B483B000AF786000BF18460C37BD46AD
:1006FC0080BC704780B483B000AF786000BF1846F0
:10070C000C37BD4680BC704780B584B000AF7860B4
:10071C007B68DBB2FB7307F10F014FF0FF33012253
:10072C00034801F029FC7B6818461037BD4680BD94
:10073C00B803002080B500AF064B074A1A60054885
:10074C0000F03BFC0346002B01D000F0CCF800BFBE
:10075C0080BD00BFAC0300200030024080B485B0E7
:10076C0000AF78607B681B68094A93420BD1094B38
:10077C005B69084A43F040035361064B5B6903F025
:10078C004003FB60FB6800BF1437BD4680BC70475C
:10079C00003002400010024080B483B000AF78609B
:1007AC007B681B68064A934205D1064B5B69054A78
:1007BC0023F04003536100BF0C37BD4680BC70472B
:1007CC00003002400010024080B485B000AF144BE2
:1007DC009B69134A43F020039361114B9B6903F00F
:1007EC002003FB60FB680E4B9B690D4A43F004032E
:1007FC0093610B4B9B6903F00403BB60BB68084B14
:10080C009B69074A43F008039361054B9B6903F00E
:10081C0008037B607B6800BF1437BD4680BC704703
:10082C000010024080B500AF00F082FA00F016F81C
:10083C00FFF7CAFFFFF77EFF00F048F900F070F9F0
:10084C00054801F063FE044801F060FE024801F027
:10085C005DFEFFF775FCF3E78835000880B590B0B6
:10086C0000AF07F1180328220021184601F0C0FD43
:10087C003B1D00221A605A609A60DA601A610123EB
:10088C00BB614FF48033FB6100233B620123BB62ED
:10089C0002237B634FF48033BB634FF4E013FB63A1
:1008AC0007F11803184600F0D5FE0346002B01D0C3
:1008BC0000F019F80F237B600223BB600023FB6060
:1008CC004FF480633B6100237B613B1D0221184682
:1008DC0001F042F90346002B01D000F004F800BFF0
:1008EC004037BD4680BD80B400AF72B600BFFEE796
:1008FC0080B483B000AF0E4B9B690D4A43F00103EB
:10090C0093610B4B9B6903F001037B607B68084B85
:10091C00DB69074A43F08053D361054BDB6903F075
:10092C0080533B603B6800BF0C37BD4680BC7047B2
:10093C000010024080B400AFFEE780B400AFFEE7C9
:10094C0080B400AFFEE780B400AFFEE780B400AF28
:10095C00FEE780B400AF00BFBD4680BC704780B4DA
:10096C0000AF00BFBD4680BC704780B400AF00BF75
:10097C00BD4680BC704780B500AF00F01FFA00BFC9
:10098C0080BD80B586B000AFF860B9607A60002396
:10099C007B610AE0AFF300800146BB685A1CBA6069
:1009AC00CAB21A707B6901337B617A697B689A429F
:1009BC00F0DB7B6818461837BD4680BD80B586B025
:1009CC0000AFF860B9607A6000237B6109E0BB6816
:1009DC005A1CBA601B781846FFF796FE7B690133E8
:1009EC007B617A697B689A42F1DB7B681846183721
:1009FC00BD4680BD80B483B000AF78604FF0FF334C
:100A0C0018460C37BD4680BC704780B483B000AF2D
:100A1C00786039603B684FF400525A6000231846E6
:100A2C000C37BD4680BC704780B483B000AF786093
:100A3C00012318460C37BD4680BC704780B485B086
:100A4C0000AFF860B9607A60002318461437BD46D1
:100A5C0080BC704780B586B000AF7860144A154BE7
:100A6C00D31A7B617B693B61134B1B68002B02D152
:100A7C00114B124A1A60104B1A687B6813443A697E
:100A8C009A4207D201F08AFC03460C221A604FF0FE
:100A9C00FF3309E0084B1B68FB60074B1A687B6847
:100AAC001344054A1360FB6818461837BD4680BDD1
:100ABC000050002000040000B4030020600400205B
:100ACC0080B400AF00BFBD4680BC704780B500AF9E
:100ADC00114B124A1A60104B4FF4E1325A600E4B14
:100AEC0000229A600C4B0022DA600B4B00221A6138
:100AFC00094B0C225A61084B00229A61064B0022CA
:100B0C00DA61054801F0B6F90346002B01D0FFF776
:100B1C00EAFE00BF80BD00BFB803002000440040C7
:100B2C0080B500AF114B124A1A60104B4FF4E132F2
:100B3C005A600E4B00229A600C4B0022DA600B4B71
:100B4C0000221A61094B0C225A61084B00229A614F
:100B5C00064B0022DA61054801F08CF90346002BA4
:100B6C0001D0FFF7C0FE00BF80BD00BF0004002015
:100B7C000048004080B58AB000AF786007F11803D8
:100B8C0000221A605A609A60DA607B681B68374AE8
:100B9C00934230D1364BDB69354A43F40033D36191
:100BAC00334BDB6903F400337B617B69304B9B690E
:100BBC002F4A43F0040393612D4B9B6903F004030C
:100BCC003B613B690423BB610223FB6103237B6212
:100BDC0007F118031946274800F062FA0823BB6195
:100BEC000023FB6100233B6207F1180319462148DF
:100BFC0000F056FA36E07B681B681F4A934231D1ED
:100C0C001B4BDB691A4A43F48023D361184BDB6915
:100C1C0003F48023FB60FB68154B9B69144A43F07B
:100C2C0008039361124B9B6903F00803BB60BB681C
:100C3C004FF48063BB610223FB6103237B6207F1EA
:100C4C00180319460D4800F02BFA4FF40063BB61F2
:100C5C000023FB6100233B6207F118031946074888
:100C6C0000F01EFA00BF2837BD4680BD004400408E
:100C7C00001002400008014000480040000C0140F8
:100C8C0080B582B000AF78607B681B68104A9342D5
:100C9C000AD1104BDB690F4A23F40033D3610C21CA
:100CAC000D4800F081FB0FE07B681B680B4A9342F8
:100CBC000AD1084BDB69074A23F48023D3614FF434
:100CCC004061074800F070FB00BF0837BD4680BD8F
:100CDC000044004000100240000801400048004061
:100CEC00000C0140FFF7ECFE0B480C490C4A0023AA
:100CFC0002E0D458C4500433C4188C42F9D3094AC6
:100D0C00094C002301E013600432A242FBD301F032
:100D1C004BFBFFF787FD704700000020C802002046
:100D2C0070360008C80200205C040020FEE70000BA
:100D3C0080B500AF084B1B68074A43F010031360E3
:100D4C00032000F007F90F2000F008F8FFF7D0FDA2
:100D5C000023184680BD00BF0020024080B582B041
:100D6C0000AF7860124B1A68124B1B7819464FF47F
:100D7C007A73B3FBF1F3B2FBF3F3184600F011F9FD
:100D8C000346002B01D001230EE07B680F2B0AD801
:100D9C00002279684FF0FF3000F0E7F8064A7B68D4
:100DAC001360002300E0012318460837BD4680BDC0
:100DBC0058020020600200205C02002080B400AFCA
:100DCC00054B1B781A46054B1B681344034A1360EA
:100DDC0000BFBD4680BC7047600200204804002064
:100DEC0080B400AF024B1B681846BD4680BC7047F0
:100DFC004804002080B485B000AF78607B6803F0B5
:100E0C000703FB600C4BDB68BB60BA684FF6FF0353
:100E1C001340BB60FB681A02BB68134343F0BF630B
:100E2C0043F40033BB60044ABB68D36000BF143783
:100E3C00BD4680BC704700BF00ED00E080B400AF41
:100E4C00044BDB681B0A03F007031846BD4680BC45
:100E5C00704700BF00ED00E080B483B000AF0346E4
:100E6C003960FB7197F90730002B0ADB3B68DAB26B
:100E7C000C4997F907301201D2B20B4483F80023C6
:100E8C000AE03B68DAB20849FB7903F00F03043B34
:100E9C001201D2B20B441A7600BF0C37BD4680BC8F
:100EAC00704700BF00E100E000ED00E080B489B0C5
:100EBC0000AFF860B9607A60FB6803F00703FB6170
:100ECC00FB69C3F10703042B28BF0423BB61FB6937
:100EDC000433062B02D9FB69033B00E000237B6142
:100EEC004FF0FF32BB6902FA03F3DA43BB681A40D6
:100EFC007B699A404FF0FF317B6901FA03F3D943C8
:100F0C007B680B40134318462437BD4680BC7047A2
:100F1C0080B582B000AF78607B68013BB3F1807F15
:100F2C0001D301230FE00A4A7B68013B53600F2178
:100F3C004FF0FF30FFF790FF054B00229A60044BF7
:100F4C0007221A60002318460837BD4680BD00BF33
:100F5C0010E000E080B582B000AF78607868FFF7F1
:100F6C0049FF00BF0837BD4680BD80B586B000AFD5
:100F7C000346B9607A60FB7300237B61FFF75EFF69
:100F8C0078617A68B9687869FFF790FF024697F93B
:100F9C000F3011461846FFF75FFF00BF1837BD46EC
:100FAC0080BD80B582B000AF78607868FFF7B0FF85
:100FBC00034618460837BD4680BD80B582B000AFE9
:100FCC0078607B68002B01D101230EE07B685B7994
:100FDC00DBB2002B05D17B6800221A717868FFF711
:100FEC00BDFB7B6801225A71002318460837BD46A9
:100FFC0080BD80B582B000AF78607B68002B01D1DA
:10100C0001231FE07B685B79DBB2022B01D1022349
:10101C0018E07B6802225A717B681B689A687B68AF
:10102C001B6842F001029A607B681B6800221A71EF
:10103C007868FFF7B1FB7B6800225A717B6800224D
:10104C001A71002318460837BD4680BD80B487B09E
:10105C0000AFF860B9607A6000233B61FB68022244
:10106C005A7100237B610AE07B699B00BA681A44C1
:10107C00FB681B6812681A607B6901337B617A69B3
:10108C007B689A42F0D3FB681B681B683B61FB686A
:10109C0001225A713B6918461C37BD4680BC70470B
:1010AC0080B48BB000AF7860396000237B62002382
:1010BC003B6269E101227B6A02FA03F3FB613B6844
:1010CC001B68FA691340BB61BA69FB699A4240F02C
:1010DC0058813B685B689A4A93425ED0984A934227
:1010EC0075D8984A934258D0964A93426FD8964AEC
:1010FC00934252D0944A934269D8944A93424CD02A
:10110C00924A934263D8924A934246D0904A934271
:10111C005DD8122B2AD8122B59D801A252F823F0E1
:10112C00A71100088111000893110008D5110008BF
:10113C00DB110008DB110008DB110008DB110008D3
:10114C00DB110008DB110008DB110008DB110008C3
:10115C00DB110008DB110008DB110008DB110008B3
:10116C00DB110008891100089D110008794A93428F
:10117C0013D02CE03B68DB683B6229E03B68DB6802
:10118C0004333B6224E03B68DB6808333B621FE0BE
:10119C003B68DB680C333B621AE03B689B68002BB6
:1011AC0002D104233B6213E03B689B68012B05D101
:1011BC0008233B627B68FA691A6109E008233B62E9
:1011CC007B68FA695A6103E000233B6200E000BFD0
:1011DC00BB69FF2B01D87B6801E07B6804337B6122
:1011EC00BB69FF2B02D87B6A9B0002E07B6A083B41
:1011FC009B003B617B691A680F213B6901FA03F381
:10120C00DB431A40396A3B6901FA03F31A437B69E1
:10121C001A603B685B6803F08053002B00F0B180D0
:10122C004D4B9B694C4A43F0010393614A4B9B69BC
:10123C0003F00103BB60BB68484A7B6A9B0802331E
:10124C0052F82330FB607B6A03F003039B000F22F0
:10125C0002FA03F3DB43FA681340FB607B68404AF5
:10126C00934213D07B683F4A93420DD07B683E4A31
:10127C00934207D07B683D4A934201D1032306E099
:10128C00042304E0022302E0012300E000237A6A35
:10129C0002F0030292009340FA681343FB602F495B
:1012AC007B6A9B080233FA6841F823203B685B6831
:1012BC0003F48013002B06D02D4B9A682C49BB6984
:1012CC0013438B6006E02A4B9A68BB69DB432849C1
:1012DC0013408B603B685B6803F40013002B06D053
:1012EC00234BDA682249BB691343CB6006E0204BE1
:1012FC00DA68BB69DB431E491340CB603B685B6813
:10130C0003F40033002B06D0194B5A681849BB69FB
:10131C0013434B6006E0164B5A68BB69DB43144918
:10132C0013404B603B685B6803F48033002B21D087
:10133C000F4B1A680E49BB6913430B6021E000BFC9
:10134C0000003210000031100000221000002110AB
:10135C0000001210000011100010024000000140AB
:10136C0000080140000C0140001001400014014035
:10137C00000401400B4B1A68BB69DB43094913405D
:10138C000B607B6A01337B623B681A687B6A22FACA
:10139C0003F3002B7FF48EAE00BF00BF2C37BD468D
:1013AC0080BC70470004014080B489B000AF786005
:1013BC0039600023FB619AE00122FB6902FA03F316
:1013CC003A681340BB61BB69002B00F08D804E4A1C
:1013DC00FB699B08023352F823307B61FB6903F0F5
:1013EC0003039B000F2202FA03F37A6913407B611B
:1013FC007B68464A934213D07B68454A93420DD092
:10140C007B68444A934207D07B68434A934201D19C
:10141C00032306E0042304E0022302E0012300E09E
:10142C000023FA6902F00302920093407A699A420F
:10143C0032D13A4B1A68BB69DB43384913400B6015
:10144C00364B5A68BB69DB43344913404B60334B12
:10145C00DA68BB69DB4331491340CB602F4B9A6888
:10146C00BB69DB432D4913408B60FB6903F003031D
:10147C009B000F2202FA03F37B61234AFB699B0852
:10148C00023352F823107B69DA431F48FB699B082F
:10149C000A40023340F82320BB69FF2B01D87B683C
:1014AC0001E07B6804333B61BB69FF2B02D8FB690D
:1014BC009B0002E0FB69083B9B00FB603B691A68E0
:1014CC000F21FB6801FA03F3DB431A400421FB688C
:1014DC0001FA03F31A433B691A607B68DA68BB694B
:1014EC00DB431A407B68DA60FB690133FB613A68C5
:1014FC00FB6922FA03F3002B7FF45EAF00BF00BF41
:10150C002437BD4680BC70470000014000080140F4
:10151C00000C014000100140001401400004014087
:10152C0080B582B000AFFFF75BFC7860454B1B6861
:10153C00444A43F00103136008E0FFF751FC0246F4
:10154C007B68D31A022B01D9032377E03D4B1B6830
:10155C0003F00203002BF0D03A4B1B6823F0F80386
:10156C00384A43F080031360FFF73AFC7860354B40
:10157C0000225A600AE0FFF733FC02467B68D31A5C
:10158C0041F28832934201D9032357E02D4B5B681B
:10159C0003F00C03002BEED12B4B2C4A1A602C4B76
:1015AC001B681846FFF7DAFB0346002B01D001231A
:1015BC0044E0FFF715FC7860224B1B68214A23F0AE
:1015CC008073136008E0FFF70BFC02467B68D31AAC
:1015DC00022B01D9032331E01A4B1B6803F0007373
:1015EC00002BF0D1174B00225A60FFF7F9FB786003
:1015FC00144B1B68134A23F41023136008E0FFF705
:10160C00EFFB02467B68D31A642B01D9032315E048
:10161C000C4B1B6803F40033002BF0D1094B1B68F7
:10162C00084A23F480231360064B5B6A054A43F097
:10163C0080735362034B00229A60002318460837CC
:10164C00BD4680BD001002405802002000127A00F6
:10165C005C02002080B586B000AF78607B68002B00
:10166C0001D1012372E27B681B6803F00103002B9C
:10167C0000F08780924B5B6803F00C03042B0CD0BA
:10168C008F4B5B6803F00C03082B12D18C4B5B68FF
:10169C0003F48033B3F5803F0BD1894B1B6803F403
:1016AC000033002B6CD07B685B68002B68D1012366
:1016BC004CE27B685B68B3F5803F06D1804B1B68BE
:1016CC007F4A43F4803313602EE07B685B68002B09
:1016DC000CD17B4B1B687A4A23F480331360784B14
:1016EC001B68774A23F4802313601DE07B685B68DA
:1016FC00B3F5A02F0CD1724B1B68714A43F48023B5
:10170C0013606F4B1B686E4A43F4803313600BE01D
:10171C006B4B1B686A4A23F480331360684B1B685D
:10172C00674A23F4802313607B685B68002B13D01B
:10173C00FFF756FB386108E0FFF752FB02463B69A6
:10174C00D31A642B01D9032300E25D4B1B6803F40D
:10175C000033002BF0D014E0FFF742FB386108E0B7
:10176C00FFF73EFB02463B69D31A642B01D90323D6
:10177C00ECE1534B1B6803F40033002BF0D100E079
:10178C0000BF7B681B6803F00203002B63D04C4B3B
:10179C005B6803F00C03002B0BD0494B5B6803F028
:1017AC000C03082B1CD1464B5B6803F48033002BD5
:1017BC0016D1434B1B6803F00203002B05D07B684A
:1017CC001B69012B01D00123C0E13D4B1B6823F0A9
:1017DC00F8027B685B69DB00394913430B603AE024
:1017EC007B681B69002B20D0364B01221A60FFF757
:1017FC00F7FA386108E0FFF7F3FA02463B69D31AAF
:10180C00022B01D90323A1E12D4B1B6803F002032A
:10181C00002BF0D02A4B1B6823F0F8027B685B6925
:10182C00DB00274913430B6015E0264B00221A609E
:10183C00FFF7D6FA386108E0FFF7D2FA02463B69A7
:10184C00D31A022B01D9032380E11D4B1B6803F033
:10185C000203002BF0D17B681B6803F00803002BFC
:10186C003AD07B689B69002B19D0174B01221A6068
:10187C00FFF7B6FA386108E0FFF7B2FA02463B69A7
:10188C00D31A022B01D9032360E10D4B5B6A03F0E1
:10189C000203002BF0D0012000F0CEFA1CE00A4B22
:1018AC0000221A60FFF79CFA38610FE0FFF798FAF4
:1018BC0002463B69D31A022B08D9032346E100BF29
:1018CC00001002400000424280044242924B5B6A8C
:1018DC0003F00203002BE9D17B681B6803F00403BF
:1018EC00002B00F0A6800023FB758B4BDB6903F00B
:1018FC008053002B0DD1884BDB69874A43F0805312
:10190C00D361854BDB6903F08053BB60BB6801235B
:10191C00FB75824B1B6803F48073002B18D17F4B33
:10192C001B687E4A43F480731360FFF759FA3861E1
:10193C0008E0FFF755FA02463B69D31A642B01D92C
:10194C00032303E1754B1B6803F48073002BF0D069
:10195C007B68DB68012B06D16F4B1B6A6E4A43F028
:10196C00010313622DE07B68DB68002B0CD16A4B02
:10197C001B6A694A23F001031362674B1B6A664AB0
:10198C0023F0040313621CE07B68DB68052B0CD18D
:10199C00614B1B6A604A43F0040313625E4B1B6A83
:1019AC005D4A43F0010313620BE05B4B1B6A5A4A1E
:1019BC0023F001031362584B1B6A574A23F00403AC
:1019CC0013627B68DB68002B15D0FFF709FA3861CE
:1019DC000AE0FFF705FA02463B69D31A41F2883256
:1019EC00934201D90323B1E04B4B1B6A03F0020372
:1019FC00002BEED014E0FFF7F3F938610AE0FFF7A3
:101A0C00EFF902463B69D31A41F28832934201D96D
:101A1C0003239BE0404B1B6A03F00203002BEED127
:101A2C00FB7D012B05D13C4BDB693B4A23F08053FA
:101A3C00D3617B68DB69002B00F08780364B5B68D9
:101A4C0003F00C03082B61D07B68DB69022B46D1B9
:101A5C00334B00221A60FFF7C3F9386108E0FFF737
:101A6C00BFF902463B69D31A022B01D903236DE05F
:101A7C00294B1B6803F00073002BF0D17B681B6AA9
:101A8C00B3F5803F08D1244B5B6823F400327B68AC
:101A9C009B68214913434B601F4B5B6823F4741202
:101AAC007B68196A7B685B6A0B431B4913434B6069
:101ABC001B4B01221A60FFF793F9386108E0FFF71E
:101ACC008FF902463B69D31A022B01D903233DE05F
:101ADC00114B1B6803F00073002BF0D035E0104B5A
:101AEC0000221A60FFF77CF9386108E0FFF778F9FB
:101AFC0002463B69D31A022B01D9032326E0064B7D
:101B0C001B6803F00073002BF0D11EE07B68DB69CF
:101B1C00012B07D1012319E0001002400070004096
:101B2C00600042420B4B5B68FB60FB6803F4803245
:101B3C007B681B6A9A4206D1FB6803F470127B68BF
:101B4C005B6A9A4201D0012300E000231846183743
:101B5C00BD4680BD0010024080B584B000AF7860F7
:101B6C0039607B68002B01D10123D0E06A4B1B68E4
:101B7C0003F007033A689A4210D9674B1B6823F0AD
:101B8C00070265493B6813430B60634B1B6803F00A
:101B9C0007033A689A4201D00123B8E07B681B68BE
:101BAC0003F00203002B20D07B681B6803F00403B6
:101BBC00002B05D0594B5B68584A43F4E0635360E3
:101BCC007B681B6803F00803002B05D0534B5B6844
:101BDC00524A43F460535360504B5B6823F0F0025D
:101BEC007B689B684D4913434B607B681B6803F013
:101BFC000103002B40D07B685B68012B07D1474B5E
:101C0C001B6803F40033002B15D101237FE07B68A4
:101C1C005B68022B07D1414B1B6803F00073002B50
:101C2C0009D1012373E03D4B1B6803F00203002B29
:101C3C0001D101236BE0394B5B6823F003027B6815
:101C4C005B68364913434B60FFF7CAF8F8600AE04B
:101C5C00FFF7C6F80246FB68D31A41F2883293426A
:101C6C0001D9032353E02D4B5B6803F00C027B6816
:101C7C005B689B009A42EBD1274B1B6803F0070370
:101C8C003A689A4210D2244B1B6823F0070222496F
:101C9C003B6813430B60204B1B6803F007033A6847
:101CAC009A4201D0012332E07B681B6803F00403E5
:101CBC00002B08D0194B5B6823F4E0627B68DB686F
:101CCC00164913434B607B681B6803F00803002B19
:101CDC0009D0124B5B6823F460527B681B69DB00F4
:101CEC000E4913434B6000F021F802460B4B5B6826
:101CFC001B0903F00F030A49CB5C22FA03F3094AD0
:101D0C001360094B1B681846FFF728F80023184688
:101D1C001037BD4680BD00BF0020024000100240BD
:101D2C00A4350008580200205C02002080B487B063
:101D3C0000AF0023FB600023BB6000237B6100230A
:101D4C007B6000233B611E4B5B68FB60FB6803F010
:101D5C000C03042B02D0082B03D027E0194B3B615A
:101D6C0027E0FB689B0C03F00F03174AD35C7B60E6
:101D7C00FB6803F48033002B10D0114B5B685B0CB9
:101D8C0003F00103114AD35CBB607B680D4A03FB73
:101D9C0002F2BB68B2FBF3F37B6104E07B680C4A94
:101DAC0002FB03F37B617B693B6102E0054B3B610A
:101DBC0000BF3B6918461C37BD4680BC704700BF4E
:101DCC000010024000127A00BC350008CC35000827
:101DDC0000093D0080B400AF024B1B681846BD469D
:101DEC0080BC70475802002080B500AFFFF7F2FFAF
:101DFC000246054B5B681B0A03F007030349CB5CE7
:101E0C0022FA03F3184680BD00100240B4350008D6
:101E1C0080B500AFFFF7DEFF0246054B5B68DB0ABF
:101E2C0003F007030349CB5C22FA03F3184680BD89
:101E3C0000100240B435000880B485B000AF786063
:101E4C000A4B1B680A4AA2FB03235B0A7A6802FB53
:101E5C0003F3FB6000BFFB685A1EFA60002BF9D13C
:101E6C0000BF00BF1437BD4680BC7047580200202D
:101E7C00D34D621080B582B000AF78607B68002BC8
:101E8C0001D1012342E07B6893F84130DBB2002B97
:101E9C0006D17B68002283F840207868FEF76AFE42
:101EAC007B68242283F841207B681B68DA687B6896
:101EBC001B6822F40052DA60786800F0E1F97B6864
:101ECC001B681A697B681B6822F490421A617B6854
:101EDC001B685A697B681B6822F02A025A617B686E
:101EEC001B68DA687B681B6842F40052DA607B6816
:101EFC0000225A647B68202283F841207B682022D0
:101F0C0083F842207B6800225A6300231846083766
:101F1C00BD4680BD80B582B000AF78607B68002B79
:101F2C0001D1012324E07B68242283F841207B68C3
:101F3C001B68DA687B681B6822F40052DA607868E8
:101F4C00FEF79EFE7B6800225A647B68002283F8B1
:101F5C0041207B68002283F842207B6800221A63B0
:101F6C007B6800225A637B68002283F840200023A0
:101F7C0018460837BD4680BD80B58AB002AFF86000
:101F8C00B9603B601346FB8000237B61FB6893F8D0
:101F9C004130DBB2202B6DD1BB68002B02D0FB880B
:101FAC00002B01D1012366E0FB6800225A64FB6818
:101FBC00212283F84120FEF713FF7861FB68FA8831
:101FCC009A84FB68FA88DA84FB689B68B3F5805FB7
:101FDC0008D1FB681B69002B04D10023FB61BB6893
:101FEC00BB6103E0BB68FB610023BB612AE03B687B
:101FFC0000937B6900228021F86800F0D2F8034638
:10200C00002B01D0032336E0FB69002B0BD1BB69FD
:10201C001B881A46FB681B68C2F308025A60BB692E
:10202C000233BB6107E0FB691A78FB681B685A60D6
:10203C00FB690133FB61FB68DB8C9BB2013B9AB201
:10204C00FB68DA84FB68DB8C9BB2002BCFD13B683E
:10205C0000937B6900224021F86800F0A2F8034647
:10206C00002B01D0032306E0FB68202283F84120DB
:10207C00002300E0022318462037BD4680BD80B502
:10208C008AB002AFF860B9603B601346FB80002356
:10209C007B61FB6893F84230DBB2202B7CD1BB68B0
:1020AC00002B02D0FB88002B01D1012375E0FB68CB
:1020BC0000225A64FB68222283F84220FB6800222B
:1020CC001A63FEF78DFE7861FB68FA889A85FB68C7
:1020DC00FA88DA85FB689B68B3F5805F08D1FB68EA
:1020EC001B69002B04D10023FB61BB68BB6103E0BF
:1020FC00BB68FB610023BB6143E03B6800937B69D9
:10210C0000222021F86800F04CF80346002B01D087
:10211C00032342E0FB69002B0CD1FB681B685B6856
:10212C009BB2C3F308039AB2BB691A80BB69023332
:10213C00BB611FE0FB689B68B3F5805F07D0FB6851
:10214C009B68002B0AD1FB681B69002B06D1FB682E
:10215C001B685B68DAB2FB691A7008E0FB681B68E5
:10216C005B68DBB203F07F03DAB2FB691A70FB69C0
:10217C000133FB61FB68DB8D9BB2013B9AB2FB68C0
:10218C00DA85FB68DB8D9BB2002BB6D1FB68202275
:10219C0083F84220002300E0022318462037BD4676
:1021AC0080BD80B590B000AFF860B9603B6013465D
:1021BC00FB7150E0BB6CB3F1FF3F4CD0BB6C002B00
:1021CC0007D0FEF70DFE02463B68D31ABA6C9A4252
:1021DC0041D2FB681B680C33BB62BB6A53E8003FFF
:1021EC007B627B6A23F4D073FB63FB681B680C3344
:1021FC00FA6B7A633B63396B7A6B41E80023FB62C1
:10220C00FB6A002BE5D1FB681B6814337B617B698F
:10221C0053E8003F3B613B6923F00103BB63FB6860
:10222C001B681433BA6B3A62FB61F9693A6A41E88C
:10223C000023BB61BB69002BE5D1FB68202283F82E
:10224C004120FB68202283F84220FB68002283F89F
:10225C00402003230FE0FB681B681A68BB6813401F
:10226C00BA689A420CBF01230023DBB21A46FB79F1
:10227C009A429FD0002318464037BD4680BD0000CF
:10228C0080B584B000AF78607B681B681B6923F451
:10229C0040517B68DA687B681B680A431A617B686B
:1022AC009A687B681B691A437B685B691343BB6044
:1022BC007B681B68DB6823F4B05323F00C037A684B
:1022CC001268B9680B43D3607B681B685B6923F4A5
:1022DC0040717B689A697B681B680A435A617B680A
:1022EC001B682C4A934203D1FFF792FDF86002E081
:1022FC00FFF77AFDF860FA6813469B0013449A00C6
:10230C001A447B685B689B00B2FBF3F3224AA2FB86
:10231C0003235B091901FA6813469B0013449A00C6
:10232C001A447B685B689B00B2FBF3F21A4BA3FB6D
:10233C0002035B09642000FB03F3D31A1B01323345
:10234C00154AA2FB03235B0903F0F0031944FA6856
:10235C0013469B0013449A001A447B685B689B00ED
:10236C00B2FBF3F20C4BA3FB02035B09642000FBF2
:10237C0003F3D31A1B013233074AA2FB03235B0975
:10238C0003F00F027B681B680A449A6000BF103789
:10239C00BD4680BD003801401F85EB51014B1868CC
:1023AC00704700BF6402002070B500260C4D0D4C28
:1023BC00641BA410A64209D101F02CF800260A4D8A
:1023CC000A4C641BA410A64205D170BD55F8043B01
:1023DC0098470136EEE755F8043B98470136F2E78B
:1023EC006836000868360008683600086C36000845
:1023FC0003460244934200D1704703F8011BF9E7EE
:10240C000FB40A4B13B51C6824B1A36913B9204649
:10241C0000F05AFA05AB2046049AA168019300F02B
:10242C005DFC02B0BDE8104004B0704764020020AF
:10243C0070B50E46054618B183690BB900F044FA25
:10244C00AB69AC6813B9284600F03EFA2C4B9C42A1
:10245C0020D16C68636EDB0705D4A389980502D480
:10246C00A06D00F0CFFAA38919071DD52369DBB144
:10247C00013EA36816F8011F013BA36039BB002B7A
:10248C0038DA22460A21284600F048F8013011D0EB
:10249C000A2511E01B4B9C4201D1AC68DAE71A4BC0
:1024AC009C4208BFEC68D5E72146284600F088F826
:1024BC000028DDD04FF0FF35636EDA0705D4A38911
:1024CC009B0502D4A06D00F09EFA284670BD002B2F
:1024DC0004DAA2699A4206DC0A2904D023685A1C41
:1024EC0022601970C5E72246284600F017F8013023
:1024FC00BFD1DFE70A2523685A1C22601D70DBE779
:10250C00F435000814360008D4350008024B014697
:10251C001868FFF78DBF00BF64020020F8B50E46A7
:10252C001446054618B183690BB900F0CDF9214B5F
:10253C009C422BD16C68A369A360A3891A072FD581
:10254C0023696BB323692068F6B2C01A63693746F6
:10255C00834204DC2146284600F022F930BBA368F4
:10256C000130013BA36023685A1C22601E70636912
:10257C00834204D0A389DB0706D50A2E04D1214659
:10258C00284600F00DF988B93846F8BD0A4B9C4234
:10259C0001D1AC68CFE7094B9C4208BFEC68CAE795
:1025AC002146284600F00CF80028CBD04FF0FF371E
:1025BC00EAE700BFF435000814360008D4350008EB
:1025CC00324B70B51D6806460C4625B1AB6913B984
:1025DC00284600F079F92E4B9C420FD16C68A389E8
:1025EC00B4F90C2019072CD4DD0611D4092333605F
:1025FC0042F040034FF0FF30A3813EE0254B9C425C
:10260C0001D1AC68EBE7244B9C4208BFEC68E6E7D1
:10261C00580712D5616B41B104F14403994202D0C1
:10262C00304600F057FA00236363A38923F0240398
:10263C00A3810023636023692360A38943F008030B
:10264C00A38123694BB9A38903F42073B3F5007FED
:10265C0003D02146304600F0FDF9A089B4F90C20D6
:10266C0010F001030AD00023A36063695B42A361ED
:10267C00236943B910F08000BAD170BD810758BFEF
:10268C006369A360F4E70020F7E700BF6402002051
:10269C00F435000814360008D43500088A89F8B5DA
:1026AC00054610070C4657D44B68002B04DC0B6C0A
:1026BC00002B01DC0020F8BDE66A002EFAD00023C6
:1026CC0012F480522F682B6032D0606DA3895A07A8
:1026DC0005D56368C01A636B0BB1236CC01A002359
:1026EC000246E66A2846216AB047431CA38906D1F4
:1026FC0029681D292CD8294ACA40D60728D500227A
:10270C0062602269D904226004D5421C01D12B6875
:10271C0003B96065616B2F600029CBD004F14403D1
:10272C00994202D0284600F0D5F900206063C2E738
:10273C00216A01232846B047411CC7D12B68002BC6
:10274C00C4D01D2B01D0162B01D12F60B2E7A38969
:10275C0043F04003A381AEE70F69002FAAD0930783
:10276C0018BF00230E6808BF4B69F61B0F608B6007
:10277C00002E9FDD33463A462846216AD4F828C0FD
:10278C00E047002806DCA3894FF0FF3043F04003FC
:10279C00A38190E70744361AEAE700BF0100402006
:1027AC0038B50B6905460C4613B90025284638BDCB
:1027BC0018B183690BB900F087F8144B9C421BD1FC
:1027CC006C68B4F90C30002BEFD0626ED00704D4D7
:1027DC00990502D4A06D00F015F928462146FFF7A3
:1027EC005DFF636E0546DA07E0D4A3899B05DDD453
:1027FC00A06D00F008F9D9E7054B9C4201D1AC68FB
:10280C00DFE7044B9C4208BFEC68DAE7F4350008BC
:10281C0014360008D4350008002310B50446C0E96E
:10282C000033C0E90433836081814366C2818361D4
:10283C00194608225C30FFF7DBFD054B246263620E
:10284C00044BA362044BE362044B236310BD00BF33
:10285C0095320008B7320008EF3200081333000835
:10286C00014900F0AFB800BFAD270008682270B571
:10287C004D1E55430E4605F1740100F093F90446C4
:10288C0040B10021C0E900160C30A06005F16802CF
:10289C00FFF7AEFD204670BD014800F0B3B800BF95
:1028AC004D040020014800F0AEB800BF4D040020DC
:1028BC00014800F0A7B800BF4E040020014800F00A
:1028CC00A2B800BF4E04002010B50446FFF7F0FF7D
:1028DC00A3691BB1BDE81040FFF7F0BFC4E9123388
:1028EC002365134B134A1B68A262A34208BF012342
:1028FC00204608BFA36100F01FF86060204600F07E
:10290C001BF8A060204600F017F800220421E060BC
:10291C006068FFF781FF01220921A068FFF77CFFA7
:10292C0002221221E068FFF777FF0123A361D1E7B0
:10293C00D03500086D280008F8B50746FFF7ACFF46
:10294C001E4B1E68B36913B93046FFF7BDFF4836FE
:10295C00D6E90134013B03D533680BB33668F7E78E
:10296C00B4F90C50D5B9164B04F15800E360656608
:10297C0000F047F8FFF796FF08222946C4E90155F5
:10298C00C4E904552560A56104F15C00FFF730FD36
:10299C00C4E90D55C4E912552046F8BD6834D9E791
:1029AC0004213846FFF762FF044630600028D5D179
:1029BC00FFF778FF0C233B60EEE700BFD035000833
:1029CC000100FFFF2DE9F84306468846002700F179
:1029DC004804D4E90195B9F1010905D52468002C06
:1029EC00F7D13846BDE8F883AB89012B07D9B5F987
:1029FC000E30013303D029463046C04707436835B3
:102A0C00E9E770477047704770B50E46B1F90E1084
:102A1C00144600291D4696B008DA0022B6F90C308F
:102A2C002A601A0610D44FF480630EE06A4600F058
:102A3C0091FC0028F1DB019A02F47042A2F50053DC
:102A4C005A425A412A60EEE740230020236016B018
:102A5C0070BD00008B8973B59D0706460C4607D5E3
:102A6C0004F14703236023610123636102B070BD4D
:102A7C006A4601ABFFF7C8FF00990546304600F0E7
:102A8C0091F848B9B4F90C309A05EFD423F003034C
:102A9C0043F00203A381E3E70D4BB362A3892060EB
:102AAC0043F08003A381009B20616361019B5BB1B8
:102ABC003046B4F90E1000F05FFC28B1A38923F066
:102ACC00030343F00103A381A0890543A581CDE74E
:102ADC006D28000838B50546002940D051F8043C53
:102AEC000C1F002BB8BFE41800F076FC1C4A1368CE
:102AFC0033B9636014602846BDE8384000F072BCFE
:102B0C00A34208D9206821188B4201BF19685B6861
:102B1C0009182160EDE71A465B680BB1A342FAD99C
:102B2C0011685018A0420BD1206801445018834200
:102B3C001160E0D118685B68014411605360DAE7FA
:102B4C0002D90C232B60D6E7206821188B4201BFD9
:102B5C0019685B680918216063605460CBE738BD65
:102B6C005004002070B50E4E0C463168054611B964
:102B7C0000F07AFB30602146284600F075FB431CC0
:102B8C000AD0C41C24F00304A04207D0211A284602
:102B9C0000F06AFB013001D14FF0FF34204670BDCC
:102BAC00540400202DE9F041CD1C25F00305083517
:102BBC000C2D38BF0C25002D074601DBA94205D989
:102BCC000C2300263B603046BDE8F0812E4E00F011
:102BDC0003FC33681C4634BB29463846FFF7C2FF5A
:102BEC00431C04464DD134682646002E40D1236840
:102BFC003146384604EB030800F036FB80453AD1E9
:102C0C00216803356D1A25F0030508350C2D38BFE6
:102C1C000C2538462946FFF7A5FF01302BD0236839
:102C2C002B4423600EE02268521B1ED40B2A16D9AB
:102C3C006119A342256018BF5960636808BF3160F1
:102C4C0062514B60384604F10B0600F0CBFB26F0CA
:102C5C000706231DF21AB6D09B1BA350B3E762687C
:102C6C00A3420CBF32605A60ECE723466468B2E7BB
:102C7C0034467668B9E70C2338463B6000F0B2FB6B
:102C8C00A1E72560DEE700BF50040020936810B474
:102C9C00013B002B936007DA9469A34201DB0A29FC
:102CAC0002D110BCFFF73ABC1368581C10601970A5
:102CBC00084610BC7047F8B506460F461446D518A2
:102CCC00AC4201D1002007E03A46304614F8011B13
:102CDC00FFF7DCFF431CF3D1F8BD00002DE9F04FEA
:102CEC000D461446984606469DB018B183690BB93B
:102CFC00FFF7EAFD894B9D421BD175686B6ED907B6
:102D0C0005D4AB899A0502D4A86DFFF77BFEAB897D
:102D1C001B0701D52B69EBB929463046FFF750FC50
:102D2C00C0B16B6EDC070ED54FF0FF301DB0BDE8A7
:102D3C00F08F7B4B9D4201D1B568DFE7794B9D420B
:102D4C0008BFF568DAE7AB899805EDD4A86DFFF7F5
:102D5C005AFEE9E70023099320238DF8293030230C
:102D6C004FF00109CDF80C80DFF8BC818DF82A30CA
:102D7C0023469A4613F8012B0AB1252AF9D1BAEB4E
:102D8C00040B0BD05B46224629463046FFF793FFD7
:102D9C00013000F0AA80099A5A4409929AF800303E
:102DAC00002B00F0A28000234FF0FF32CDE9052369
:102DBC000AF1010A049307938DF853301A93544681
:102DCC00052214F8011B584800F0F8FA049AD8B9F7
:102DDC00D10644BF20238DF85330130744BF2B2357
:102DEC008DF853309AF800302A2B15D05446002019
:102DFC004FF00A0C079A214611F8013B303B092B86
:102E0C004ED9B0B1079214E0A0EB080309FA03F312
:102E1C001343A2460493D2E7039B191D1B6803912D
:102E2C00002BBBBF5B4242F0020207930793B8BF73
:102E3C00049223782E2B0CD163782A2B35D1039B4B
:102E4C0002341A1D1B680392002BB8BF4FF0FF33DE
:102E5C000593DFF8D8A003225046217800F0AEFA93
:102E6C0040B14023A0EB0A0003FA00F0049B0134AC
:102E7C000343049314F8011B06222D488DF82810E7
:102E8C0000F09CFA00283FD02A4B1BBB039B073356
:102E9C0023F0070308330393099B3B44099367E72B
:102EAC000C4601200CFB0232A5E700234FF00A0C64
:102EBC00194601340593204610F8012B303A092AA3
:102ECC0003D9002BC5D00591C3E7044601230CFBA5
:102EDC000121F0E703AB00932A463046164B04A9B8
:102EEC00AFF300800746781CD6D16B6ED90705D49A
:102EFC00AB899A0502D4A86DFFF785FDAB895B06FB
:102F0C003FF512AF099811E703AB00932A46304600
:102F1C00094B04A900F082F8E4E700BFF43500087F
:102F2C0014360008D4350008343600083A36000848
:102F3C003E36000800000000C32C00082DE9F047C5
:102F4C00164699468A680B6907469342B8BF1346E2
:102F5C00336091F843200C46DDF820800AB1013330
:102F6C0033602368990642BF3368023333602568A7
:102F7C0015F0060506D104F1190AE36832689B1AAC
:102F8C00AB4228DC94F84320131E226818BF01239F
:102F9C0092062DD44946384604F14302C04701300D
:102FAC0020D02368E56803F00603042B18BF002526
:102FBC0032684FF00006A36808BFAD1A226908BF3B
:102FCC0025EAE5759342C4BF9B1AED181A34B54235
:102FDC001AD1002008E00123524649463846C04722
:102FEC00013003D14FF0FF30BDE8F0870135C4E765
:102FFC003020E11881F843005A1C94F84510224403
:10300C00023382F84310C5E701232246494638466D
:10301C00C0470130E6D00136D9E700002DE9FF4763
:10302C000F7E9146782F80460C469A460C9D01F1F6
:10303C00430207D8622F0AD8002F00F0D980582FEE
:10304C0000F0A48004F1420584F842703AE0A7F144
:10305C006303152BF6D801A151F823F0C1300008F9
:10306C00D5300008513000085130000851300008AC
:10307C0051300008D530000851300008513000089C
:10308C005130000851300008E331000805310008C8
:10309C00C5310008513000085130000805320008D5
:1030AC00513000080531000851300008513000083B
:1030BC00CD3100082B681A1D1B682A6004F14205EB
:1030CC0084F842300123A4E020682968060601F147
:1030DC0004030AD50E682B60002E03DA2D237642EA
:1030EC0084F843300A235E4819E00E6810F0400F54
:1030FC002B6018BF36B2EFE72B682068191D2960CA
:10310C00010601D51E6802E04606FBD51E886F2F0E
:10311C000CBF08230A235248002184F84310656829
:10312C00002DA8BF2168A560A4BF21F00401216077
:10313C000EB9002D4DD01546B6FBF3F103FB11670C
:10314C00C75D05F8017D3746BB420E46F4D9082B06
:10315C000BD12368DE0708D5236961689942DEBF6D
:10316C00302305F8013C05F1FF35521B22614B461B
:10317C0021464046CDF800A003AAFFF7DFFE013040
:10318C004CD14FF0FF3004B0BDE8F087344881F8E3
:10319C0045702968236851F8046B29601D0614D505
:1031AC00DF0744BF43F0200323601EB9236823F0DC
:1031BC00200323601023AFE7236843F02003236030
:1031CC007823284884F84530E3E7590648BFB6B25F
:1031DC00E6E71546BBE72B682668181D6169286071
:1031EC0035061B6801D5196002E07006FBD5198005
:1031FC00002315462361BAE72B6800211A1D2A60AB
:10320C001D686268284600F0D9F808B1401B606060
:10321C0063682361002384F84330A8E72A464946B3
:10322C0040462369D0470130ABD023689B0713D4A9
:10323C00E068039B9842B8BF1846A4E701233246C6
:10324C0049464046D04701309BD00135E36803998D
:10325C005B1AAB42F2DCEBE7002504F11906F5E74B
:10326C00453600085636000838B50023054D04468F
:10327C0008462B60FDF7EEFB431C02D12B6803B113
:10328C00236038BD5804002010B50C46B1F90E105F
:10329C0000F0AEF80028ABBF636DA3891B1823F4B4
:1032AC008053ACBF6365A38110BD2DE9F0411F466F
:1032BC008B890546DB050C46164605D502230022F4
:1032CC00B1F90E1000F068F8A389324623F480534C
:1032DC00A38128463B46B4F90E10BDE8F04100F03E
:1032EC0017B810B50C46B1F90E1000F055F8431C88
:1032FC00A38915BF606523F4805343F48053A381E5
:10330C0018BFA38110BDB1F90E1000F013B8000066
:10331C0038B50446084611460022054D2A601A4667
:10332C00FDF74CFB431C02D12B6803B1236038BD65
:10333C005804002038B50023054D044608462B6080
:10334C00FDF758FB431C02D12B6803B1236038BD39
:10335C005804002038B50023064D04460846114693
:10336C002B60FDF752FB431C02D12B6803B1236089
:10337C0038BD00BF5804002038B50023054D044665
:10338C0008462B60FDF750FB431C02D12B6803B1A0
:10339C00236038BD5804002038B504460846114651
:1033AC000022054D2A601A46FDF748FB431C02D14A
:1033BC002B6803B1236038BD58040020034610B5B8
:1033CC00C9B202449342184601D1002003E00478AC
:1033DC0001338C42F6D110BD0148FFF713BB00BF7F
:1033EC004C0400200148FFF70EBB00BF4C0400202A
:1033FC0038B50446084611460022054D2A601A4687
:10340C00FDF7BFFA431C02D12B6803B1236038BD12
:10341C0058040020F8B500BFF8BC08BC9E467047A5
:0C342C00F8B500BFF8BC08BC9E46704715
:1034380043424C5F4745545F5244505F5354415494
:1034480055535F434D44000043424C5F474F5F5420
:103458004F5F414444525F434D44000043424C5F38
:10346800464C4153485F45524153455F434D4400E4
:1034780043424C5F4D454D5F57524954455F434D5C
:103488004400000043424C5F45445F575F50524F31
:10349800544543545F434D440000000043424C5F91
:1034A8004D454D5F524541445F434D440000000087
:1034B80043424C5F524541445F534543544F525F2A
:1034C8005354415455535F434D44000043424C5FAD
:1034D8004F54505F524541445F434D440000000043
:1034E80043424C5F4348414E47455F524F505F4C03
:1034F8006576656C5F434D4400000000537769743E
:10350800636820546F204170700000004352435F8D
:1035180056414C49440000004352435F494E5641CE
:103528004C49440043424C5F4745545F5645525FFF
:10353800434D440056657273696F6E206973202588
:10354800642E25642E25640A0000000056485F4357
:10355800424C5F4745545F4349445F434D44000034
:10356800434944203D20305825780A0043424C5FA7
:103578004745545F48454C505F434D4400000000A8
:1035880057656C636F6D652066726F6D206D79206D
:10359800426F6F744C6F6164657200000000000038
:1035A80000000000010203040607080900000000EB
:1035B8000102030402030405060708090A0B0C0D9F
:1035C8000E0F101001020000680200200000000029
:1035D80000000000000000000000000000000000E3
:1035E80000000000000000000000000000000000D3
:1035F80000000000000000000000000000000000C3
:1036080000000000000000000000000000000000B2
:1036180000000000000000000000000000000000A2
:10362800000000000000000000000000232D302BE7
:103638002000686C4C0065666745464700303132AB
:103648003334353637383941424344454600303102
:103658003233343536373839616263646566000061
:043668003101000824
:04366C000D01000844
:1036700043424C5F4745545F5645525F434D44209B
:10368000090909203D2020307831300A000000006F
:10369000000000000000000000000000000000002A
:1036A000000043424C5F4745545F48454C505F43E0
:1036B0004D442020200909203D2020307831310A56
:1036C00000000000000000000000000000000000FA
:1036D0000000000043424C5F4745545F4349445F4C
:1036E000434D4420202020202020202009203D2060
:1036F00020307831320A0000000000000000000095
:1037000000000000000043424C5F4745545F5244B4
:10371000505F5354415455535F434D44202009207A
:103720003D2020307831330A000000000000000006
:10373000000000000000000043424C5F474F5F5410
:103740004F5F414444525F434D44202020202020BD
:1037500009203D2020307831340A000000000000AC
:103760000000000000000000000043424C5F464C97
:103770004153485F45524153455F434D442020200B
:10378000202009203D2020307831350A000000003B
:1037900000000000000000000000000043424C5FF9
:1037A0004D454D5F57524954455F434D44202020BD
:1037B0002020202009203D2020307831360A0000CA
:1037C0000000000000000000000000000000434274
:1037D0004C5F45445F575F50524F544543545F43DD
:1037E0004D442020202009203D2020307831370A08
:1037F00000000000000000000000000000000000C9
:1038000043424C5F4D454D5F524541445F434D44FB
:103810002020202020202009203D20203078313811
:103820000A0000000000000000000000000000008E
:10383000000043424C5F524541445F534543544F5F
:10384000525F5354415455535F434D44203D202013
:10385000307831390A00000000000000000000004C
:103860000000000043424C5F4F54505F52454144BA
:103870005F434D4420202020202020202020203D78
:103880002020307832300A000000000000000000E4
:1038900000000000000043424C5F4348414E474552
:1038A0005F524F505F4C6576656C5F434D442020FE
:1038B000203D2020307832310A0000000000000056
:1038C00000000000000000000024F40010000000D0
:1038D000010000006802002000000000F43500082C
:1038E00014360008D4350008000000000000000075
:1038F00000000000000000000000000000000000C8
:1039000000000000000000000000000000000000B7
:1039100000000000000000000000000000000000A7
:103920000000000000000000000000000000000097
:0839300000000000000000008F
:0400000508000CF1F2
:00000001FF
